{
  "_format": "hh3-artifact-1",
  "contractName": "SourcingSystem",
  "sourceName": "contracts/SourcingSystem.sol",
  "abi": [
    {
      "inputs": [],
      "stateMutability": "nonpayable",
      "type": "constructor"
    },
    {
      "anonymous": false,
      "inputs": [
        {
          "indexed": true,
          "internalType": "address",
          "name": "oldOwner",
          "type": "address"
        },
        {
          "indexed": true,
          "internalType": "address",
          "name": "newOwner",
          "type": "address"
        }
      ],
      "name": "OwnerChanged",
      "type": "event"
    },
    {
      "anonymous": false,
      "inputs": [
        {
          "indexed": true,
          "internalType": "bytes32",
          "name": "externalId",
          "type": "bytes32"
        },
        {
          "indexed": true,
          "internalType": "address",
          "name": "contractAddress",
          "type": "address"
        }
      ],
      "name": "ProcurementContractCreated",
      "type": "event"
    },
    {
      "inputs": [
        {
          "internalType": "address",
          "name": "newOwner",
          "type": "address"
        }
      ],
      "name": "changeOwner",
      "outputs": [],
      "stateMutability": "nonpayable",
      "type": "function"
    },
    {
      "inputs": [
        {
          "internalType": "bytes32",
          "name": "externalId",
          "type": "bytes32"
        },
        {
          "internalType": "address",
          "name": "buyer",
          "type": "address"
        },
        {
          "internalType": "uint16",
          "name": "priceWeight",
          "type": "uint16"
        },
        {
          "internalType": "uint16",
          "name": "defectWeight",
          "type": "uint16"
        },
        {
          "internalType": "uint16",
          "name": "leadTimeWeight",
          "type": "uint16"
        },
        {
          "internalType": "uint256",
          "name": "delayPenaltyRate",
          "type": "uint256"
        },
        {
          "internalType": "uint16",
          "name": "defectPenaltyRate",
          "type": "uint16"
        }
      ],
      "name": "createProcurementContract",
      "outputs": [],
      "stateMutability": "nonpayable",
      "type": "function"
    },
    {
      "inputs": [],
      "name": "getAllProcurementContracts",
      "outputs": [
        {
          "internalType": "address[]",
          "name": "",
          "type": "address[]"
        }
      ],
      "stateMutability": "view",
      "type": "function"
    },
    {
      "inputs": [
        {
          "internalType": "bytes32",
          "name": "externalId",
          "type": "bytes32"
        }
      ],
      "name": "getProcurementContractByExternalId",
      "outputs": [
        {
          "internalType": "address",
          "name": "",
          "type": "address"
        }
      ],
      "stateMutability": "view",
      "type": "function"
    },
    {
      "inputs": [],
      "name": "getTotalContractsCount",
      "outputs": [
        {
          "internalType": "uint256",
          "name": "",
          "type": "uint256"
        }
      ],
      "stateMutability": "view",
      "type": "function"
    },
    {
      "inputs": [],
      "name": "owner",
      "outputs": [
        {
          "internalType": "address",
          "name": "",
          "type": "address"
        }
      ],
      "stateMutability": "view",
      "type": "function"
    },
    {
      "inputs": [
        {
          "internalType": "bytes32",
          "name": "",
          "type": "bytes32"
        }
      ],
      "name": "procurementContractsByExternalId",
      "outputs": [
        {
          "internalType": "address",
          "name": "",
          "type": "address"
        }
      ],
      "stateMutability": "view",
      "type": "function"
    }
  ],
  "bytecode": "0x6080604052348015600e575f5ffd5b505f80546001600160a01b03191633179055611f728061002d5f395ff3fe608060405234801561000f575f5ffd5b506004361061007a575f3560e01c80639a8107d9116100585780639a8107d9146100e6578063a6f9dae1146100fb578063b06bdda51461010e578063e3babc0a14610123575f5ffd5b80631c5399721461007e5780631cce7ac4146100c35780638da5cb5b146100d4575b5f5ffd5b6100a661008c3660046104de565b60016020525f90815260409020546001600160a01b031681565b6040516001600160a01b0390911681526020015b60405180910390f35b6002546040519081526020016100ba565b5f546100a6906001600160a01b031681565b6100f96100f4366004610521565b61014b565b005b6100f9610109366004610594565b610379565b610116610471565b6040516100ba91906105b4565b6100a66101313660046104de565b5f908152600160205260409020546001600160a01b031690565b5f546001600160a01b031633146101a35760405162461bcd60e51b815260206004820152601760248201527621b0b63632b91034b9903737ba103a34329037bbb732b960491b60448201526064015b60405180910390fd5b5f8781526001602052604090205487906001600160a01b0316156102095760405162461bcd60e51b815260206004820152601a60248201527f45787465726e616c20494420616c726561647920657869737473000000000000604482015260640161019a565b6001600160a01b03871661025f5760405162461bcd60e51b815260206004820152601c60248201527f42757965722063616e6e6f74206265207a65726f206164647265737300000000604482015260640161019a565b5f5f5f9054906101000a90046001600160a01b0316888888888888604051610286906104d1565b6001600160a01b03978816815296909516602087015261ffff938416604087015291831660608601528216608085015260a08401521660c082015260e001604051809103905ff0801580156102dd573d5f5f3e3d5ffd5b505f8a815260016020819052604080832080546001600160a01b0386166001600160a01b0319918216811790925560028054948501815585527f405787fa12a823e0f2b7631cc41b3ba8828b3321ca811111fa75cd3aa3bb5ace9093018054909316811790925551929350918b917fd0cf1d85eea0826e023e270d9b3b70e22efc539a701f9e71239e2d95e2dc459c91a3505050505050505050565b5f546001600160a01b031633146103cc5760405162461bcd60e51b815260206004820152601760248201527621b0b63632b91034b9903737ba103a34329037bbb732b960491b604482015260640161019a565b6001600160a01b0381166104225760405162461bcd60e51b815260206004820181905260248201527f4e6577206f776e65722063616e6e6f74206265207a65726f2061646472657373604482015260640161019a565b5f80546001600160a01b038381166001600160a01b0319831681178455604051919092169283917fb532073b38c83145e3e5135377a08bf9aab55bc0fd7c1179cd4fb995d2a5159c9190a35050565b606060028054806020026020016040519081016040528092919081815260200182805480156104c757602002820191905f5260205f20905b81546001600160a01b031681526001909101906020018083116104a9575b5050505050905090565b61193d8061060083390190565b5f602082840312156104ee575f5ffd5b5035919050565b80356001600160a01b038116811461050b575f5ffd5b919050565b803561ffff8116811461050b575f5ffd5b5f5f5f5f5f5f5f60e0888a031215610537575f5ffd5b87359650610547602089016104f5565b955061055560408901610510565b945061056360608901610510565b935061057160808901610510565b925060a0880135915061058660c08901610510565b905092959891949750929550565b5f602082840312156105a4575f5ffd5b6105ad826104f5565b9392505050565b602080825282518282018190525f918401906040840190835b818110156105f45783516001600160a01b03168352602093840193909201916001016105cd565b50909594505050505056fe608060405234801561000f575f5ffd5b5060405161193d38038061193d83398101604081905261002e91610113565b5f80546001600160a01b03199081166001600160a01b03998a16179091556001805490911696909716959095179095556040805160608101825261ffff94851680825293851660208083018290529386169183018290526005805463ffffffff1916909517620100009091021761ffff60201b19166401000000009091021790925581518083019092528482529190921691018190526006919091556007805461ffff191690911790556008805460ff1916905561018d565b80516001600160a01b03811681146100fd575f5ffd5b919050565b805161ffff811681146100fd575f5ffd5b5f5f5f5f5f5f5f60e0888a031215610129575f5ffd5b610132886100e7565b9650610140602089016100e7565b955061014e60408901610102565b945061015c60608901610102565b935061016a60808901610102565b925060a0880151915061017f60c08901610102565b905092959891949750929550565b6117a38061019a5f395ff3fe608060405260043610610195575f3560e01c806375c68696116100e7578063cf7f5e5f11610087578063d56b288911610062578063d56b28891461051c578063eaac9a2914610530578063f327c22114610585578063f40e8471146105a4575f5ffd5b8063cf7f5e5f146104d6578063cfada3ba146104f5578063d0e30db014610514575f5ffd5b8063b8e4f945116100c2578063b8e4f94514610446578063bd72e41914610484578063bfea918f14610498578063c5467e16146104b7575f5ffd5b806375c68696146103d3578063801f0f05146103f25780638da5cb5b14610428575f5ffd5b80634d8a6b66116101525780635eee192b1161012d5780635eee192b146102f95780636fe6bdf1146103185780637150d8ae146103955780637520320f146103b4575f5ffd5b80634d8a6b6614610297578063539ed611146102c65780635d2d4005146102da575f5ffd5b8063055ad42e146101995780630ee85b83146101c857806315f79366146101f55780631dfbe6a3146102165780632804b2c01461024c57806341fe397a14610283575b5f5ffd5b3480156101a4575f5ffd5b506008546101b29060ff1681565b6040516101bf91906114b5565b60405180910390f35b3480156101d3575f5ffd5b506101e76101e23660046114f6565b610635565b6040519081526020016101bf565b348015610200575f5ffd5b5061021461020f366004611527565b610854565b005b348015610221575f5ffd5b50600654600754610234919061ffff1682565b6040805192835261ffff9091166020830152016101bf565b348015610257575f5ffd5b5060025461026b906001600160a01b031681565b6040516001600160a01b0390911681526020016101bf565b34801561028e575f5ffd5b506102146109a4565b3480156102a2575f5ffd5b506003546004546102b1919082565b604080519283526020830191909152016101bf565b3480156102d1575f5ffd5b50610214610a5a565b3480156102e5575f5ffd5b506102146102f4366004611566565b610acc565b348015610304575f5ffd5b5061026b61031336600461159f565b610bad565b348015610323575f5ffd5b506103666103323660046114f6565b600b6020525f90815260409020805460018201546002830154600390930154919261ffff8083169362010000909304169185565b6040805195865261ffff948516602087015292909316918401919091526060830152608082015260a0016101bf565b3480156103a0575f5ffd5b5060015461026b906001600160a01b031681565b3480156103bf575f5ffd5b506102146103ce3660046114f6565b610bd5565b3480156103de575f5ffd5b506102146103ed3660046115b6565b610c89565b3480156103fd575f5ffd5b5061023461040c3660046114f6565b600c6020525f90815260409020805460019091015461ffff1682565b348015610433575f5ffd5b505f5461026b906001600160a01b031681565b348015610451575f5ffd5b506104746104603660046114f6565b600a6020525f908152604090205460ff1681565b60405190151581526020016101bf565b34801561048f575f5ffd5b50610214610d5c565b3480156104a3575f5ffd5b506102146104b23660046115d6565b610dd0565b3480156104c2575f5ffd5b506102146104d13660046115fe565b610e4e565b3480156104e1575f5ffd5b506102146104f03660046114f6565b610f93565b348015610500575f5ffd5b5061021461050f36600461164a565b611085565b610214611146565b348015610527575f5ffd5b506102146111d6565b34801561053b575f5ffd5b506005546105609061ffff808216916201000081048216916401000000009091041683565b6040805161ffff948516815292841660208401529216918101919091526060016101bf565b348015610590575f5ffd5b5061021461059f3660046114f6565b61124a565b3480156105af575f5ffd5b506105fb6105be3660046114f6565b600d6020525f908152604090208054600182015460028301546003840154600485015460059095015461ffff948516959394929391929091169086565b6040805161ffff978816815260208101969096528501939093526060840191909152909216608082015260a081019190915260c0016101bf565b6001600160a01b0381165f818152600d60209081526040808320815160c081018352815461ffff90811682526001808401548387015260028085015484870190815260038087015460608088019190915260048089015487166080808a019190915260059099015460a0808a01919091529c8c52600b8b52898c208a519d8e018b5280548e52958601548088168e8d015262010000900487168d8b015293850154908c015292830154958a01959095528551808701875291548252548187015284518086019095526006548552600754909116948401949094529051939490939092919061075c5760405162461bcd60e51b815260206004820152600f60248201526e13dc99195c881b9bdd08199bdd5b99608a1b60448201526064015b60405180910390fd5b6040840151602083015160608601515f91101561079857620151808460200151876060015161078b919061168f565b61079591906116a8565b90505b82515f906107a79083906116c7565b90505f5f9050866020015161ffff16886080015161ffff1611156107e057866020015188608001516107d991906116de565b61ffff1690505b60408801516007545f916305f5e100916107ff90859061ffff166116c7565b61080991906116c7565b61081391906116a8565b90505f61082082856116f8565b905085811061083a57505f9b9a5050505050505050505050565b610844818761168f565b9c9b505050505050505050505050565b5f546001600160a01b0316331461089a5760405162461bcd60e51b815260206004820152600a60248201526927b7363c9037bbb732b960b11b6044820152606401610753565b600260085460ff1660048111156108b3576108b36114a1565b146108d05760405162461bcd60e51b81526004016107539061170b565b6040805160c08101825261ffff808616825260208083018681528385018681525f606086018181526080870182815260a088018381526001600160a01b038e168452600d909652918890209651875490871661ffff19918216178855935160018801559151600287015590516003860155516004850180549190941691161790915551600590910155517fed94e6f8f334678b3265725f268ecd9032016d6050efeb9e673a561ffbfb0a76906109969086906001600160a01b0391909116815260200190565b60405180910390a150505050565b6001546001600160a01b031633146109ce5760405162461bcd60e51b815260040161075390611732565b600160085460ff1660048111156109e7576109e76114a1565b14610a045760405162461bcd60e51b81526004016107539061170b565b600880546002919060ff19166001835b02179055506008546040517fa6dcc92f45df25789d5639b7a0c97ba1edf3bb1c0b5dd3376fd96a0db87c464291610a509160ff909116906114b5565b60405180910390a1565b6001546001600160a01b03163314610a845760405162461bcd60e51b815260040161075390611732565b5f60085460ff166004811115610a9c57610a9c6114a1565b14610ab95760405162461bcd60e51b81526004016107539061170b565b600880546001919060ff19168280610a14565b6001546001600160a01b03163314610af65760405162461bcd60e51b815260040161075390611732565b600260085460ff166004811115610b0f57610b0f6114a1565b14610b2c5760405162461bcd60e51b81526004016107539061170b565b60408051808201825283815261ffff83811660208084019182526001600160a01b0388165f818152600c83528690209451855591516001909401805461ffff1916949093169390931790915591519182527f80ecd9fe7a331860c1ebc75cae874b8e6b64faed6233ff2109b5dc561f566e08910160405180910390a1505050565b60098181548110610bbc575f80fd5b5f918252602090912001546001600160a01b0316905081565b6001546001600160a01b03163314610bff5760405162461bcd60e51b815260040161075390611732565b5f60085460ff166004811115610c1757610c176114a1565b14610c345760405162461bcd60e51b81526004016107539061170b565b600280546001600160a01b0319166001600160a01b0383169081179091556040519081527f155e8619f4d23b96769599cb9af87da3e06a360082869c18578011da9a06e670906020015b60405180910390a150565b6002546001600160a01b03163314610cd35760405162461bcd60e51b815260206004820152600d60248201526c27b7363c9031bab9ba37b6b2b960991b6044820152606401610753565b600160085460ff166004811115610cec57610cec6114a1565b14610d095760405162461bcd60e51b81526004016107539061170b565b60408051808201825283815260209081018390526003849055600483905590513381527f51c6d38137d40690e432837e7f4effa2be9258654d007f02d7e7780965a8ab9f91015b60405180910390a15050565b6001546001600160a01b03163314610d865760405162461bcd60e51b815260040161075390611732565b600260085460ff166004811115610d9f57610d9f6114a1565b14610dbc5760405162461bcd60e51b81526004016107539061170b565b600880546003919060ff1916600183610a14565b6001546001600160a01b03163314610dfa5760405162461bcd60e51b815260040161075390611732565b600360085460ff166004811115610e1357610e136114a1565b14610e305760405162461bcd60e51b81526004016107539061170b565b6001600160a01b039091165f908152600d6020526040902060030155565b335f908152600a602052604090205460ff16610eac5760405162461bcd60e51b815260206004820152601860248201527f4f6e6c79207265676973746572656420737570706c69657200000000000000006044820152606401610753565b600160085460ff166004811115610ec557610ec56114a1565b14610ee25760405162461bcd60e51b81526004016107539061170b565b6040805160a08101825286815261ffff8481166020808401918252858316848601908152606085018a8152608086018a8152335f818152600b865289902097518855945160018801805494518816620100000263ffffffff1990951691909716179290921790945592516002850155915160039093019290925591519081527f19eb4a378efac262b62d0a308f3f8b04844756fc4e31cb2cececcf4e03bfb66d910160405180910390a15050505050565b6001546001600160a01b03163314610fbd5760405162461bcd60e51b815260040161075390611732565b5f60085460ff166004811115610fd557610fd56114a1565b14610ff25760405162461bcd60e51b81526004016107539061170b565b6009805460018082019092557f6e1540171b6c0c960b71a7020d9f60077f6af931a8bbf590da0223dacf75c7af0180546001600160a01b0319166001600160a01b0384169081179091555f818152600a6020908152604091829020805460ff1916909417909355519081527fbcffc870b52d3cb785b17c2c7426be70f9181ce49c43cc7b479ebcfac2d7a1c89101610c7e565b6001546001600160a01b031633146110af5760405162461bcd60e51b815260040161075390611732565b600360085460ff1660048111156110c8576110c86114a1565b146110e55760405162461bcd60e51b81526004016107539061170b565b6001600160a01b0382165f818152600d6020908152604091829020600401805461ffff191661ffff86169081179091558251938452908301527fb1d1bf47be1c6db8c248629082d988a3b2be25093c016cffd0e8362cb6b1cdbb9101610d50565b6001546001600160a01b031633146111705760405162461bcd60e51b815260040161075390611732565b600260085460ff166004811115611189576111896114a1565b146111a65760405162461bcd60e51b81526004016107539061170b565b6040513481527fef3b311be1da7da95d74a8dcdbc27a7531061f24b2b3d14bd314f0a131f60aa590602001610a50565b6001546001600160a01b031633146112005760405162461bcd60e51b815260040161075390611732565b600360085460ff166004811115611219576112196114a1565b146112365760405162461bcd60e51b81526004016107539061170b565b600880546004919060ff1916600183610a14565b6001546001600160a01b031633146112745760405162461bcd60e51b815260040161075390611732565b600360085460ff16600481111561128d5761128d6114a1565b146112aa5760405162461bcd60e51b81526004016107539061170b565b6001600160a01b0381165f908152600d602052604090206005810154156113135760405162461bcd60e51b815260206004820152601860248201527f5061796d656e7420616c72656164792072656c656173656400000000000000006044820152606401610753565b604051630ee85b8360e01b81526001600160a01b03831660048201525f903090630ee85b8390602401602060405180830381865afa158015611357573d5f5f3e3d5ffd5b505050506040513d601f19601f8201168201806040525081019061137b9190611756565b90505f81116113bd5760405162461bcd60e51b815260206004820152600e60248201526d125b9d985b1a5908185b5bdd5b9d60921b6044820152606401610753565b600582018190556040515f906001600160a01b0385169083908381818185875af1925050503d805f811461140c576040519150601f19603f3d011682016040523d82523d5f602084013e611411565b606091505b50509050806114625760405162461bcd60e51b815260206004820152601760248201527f5061796d656e74207472616e73666572206661696c65640000000000000000006044820152606401610753565b604080516001600160a01b0386168152602081018490527f8a7b328e011987d3e3d09ba3aa2c8397c0c13b07ecb305fa3c6e25493056e0309101610996565b634e487b7160e01b5f52602160045260245ffd5b60208101600583106114d557634e487b7160e01b5f52602160045260245ffd5b91905290565b80356001600160a01b03811681146114f1575f5ffd5b919050565b5f60208284031215611506575f5ffd5b61150f826114db565b9392505050565b803561ffff811681146114f1575f5ffd5b5f5f5f5f6080858703121561153a575f5ffd5b611543856114db565b935061155160208601611516565b93969395505050506040820135916060013590565b5f5f5f60608486031215611578575f5ffd5b611581846114db565b92506020840135915061159660408501611516565b90509250925092565b5f602082840312156115af575f5ffd5b5035919050565b5f5f604083850312156115c7575f5ffd5b50508035926020909101359150565b5f5f604083850312156115e7575f5ffd5b6115f0836114db565b946020939093013593505050565b5f5f5f5f5f60a08688031215611612575f5ffd5b85359450602086013593506040860135925061163060608701611516565b915061163e60808701611516565b90509295509295909350565b5f5f6040838503121561165b575f5ffd5b611664836114db565b915061167260208401611516565b90509250929050565b634e487b7160e01b5f52601160045260245ffd5b818103818111156116a2576116a261167b565b92915050565b5f826116c257634e487b7160e01b5f52601260045260245ffd5b500490565b80820281158282048414176116a2576116a261167b565b61ffff82811682821603908111156116a2576116a261167b565b808201808211156116a2576116a261167b565b6020808252600d908201526c496e76616c696420706861736560981b604082015260600190565b6020808252600a908201526927b7363c90313abcb2b960b11b604082015260600190565b5f60208284031215611766575f5ffd5b505191905056fea2646970667358221220b6de80f92564fcfd7c6ef8863506c004a971ae1e00f8397507fd61b41b4fd7ed64736f6c634300081c0033a26469706673582212208b27cddac0506d6269c17734089caedf646ca7ed926816d9798ebcc81507346164736f6c634300081c0033",
  "linkReferences": {},
  "deployedLinkReferences": {},
  "immutableReferences": {},
  "inputSourceName": "project/contracts/SourcingSystem.sol",
  "buildInfoId": "solc-0_8_28-7633fd63653fb8edd7214830a13baa765ed41b08"
}