{
  "_format": "hh3-artifact-1",
  "contractName": "SourcingSystem",
  "sourceName": "contracts/SourcingSystem.sol",
  "abi": [
    {
      "inputs": [],
      "stateMutability": "nonpayable",
      "type": "constructor"
    },
    {
      "anonymous": false,
      "inputs": [
        {
          "indexed": true,
          "internalType": "address",
          "name": "oldOwner",
          "type": "address"
        },
        {
          "indexed": true,
          "internalType": "address",
          "name": "newOwner",
          "type": "address"
        }
      ],
      "name": "OwnerChanged",
      "type": "event"
    },
    {
      "anonymous": false,
      "inputs": [
        {
          "indexed": true,
          "internalType": "bytes32",
          "name": "externalId",
          "type": "bytes32"
        },
        {
          "indexed": true,
          "internalType": "address",
          "name": "contractAddress",
          "type": "address"
        }
      ],
      "name": "ProcurementContractCreated",
      "type": "event"
    },
    {
      "inputs": [
        {
          "internalType": "address",
          "name": "newOwner",
          "type": "address"
        }
      ],
      "name": "changeOwner",
      "outputs": [],
      "stateMutability": "nonpayable",
      "type": "function"
    },
    {
      "inputs": [
        {
          "internalType": "bytes32",
          "name": "externalId",
          "type": "bytes32"
        },
        {
          "internalType": "address",
          "name": "buyer",
          "type": "address"
        },
        {
          "internalType": "uint16",
          "name": "priceWeight",
          "type": "uint16"
        },
        {
          "internalType": "uint16",
          "name": "defectWeight",
          "type": "uint16"
        },
        {
          "internalType": "uint16",
          "name": "leadTimeWeight",
          "type": "uint16"
        },
        {
          "internalType": "uint16",
          "name": "delayPenaltyRate",
          "type": "uint16"
        },
        {
          "internalType": "uint16",
          "name": "defectPenaltyRate",
          "type": "uint16"
        }
      ],
      "name": "createProcurementContract",
      "outputs": [],
      "stateMutability": "nonpayable",
      "type": "function"
    },
    {
      "inputs": [],
      "name": "getAllProcurementContracts",
      "outputs": [
        {
          "internalType": "address[]",
          "name": "",
          "type": "address[]"
        }
      ],
      "stateMutability": "view",
      "type": "function"
    },
    {
      "inputs": [
        {
          "internalType": "bytes32",
          "name": "externalId",
          "type": "bytes32"
        }
      ],
      "name": "getProcurementContractByExternalId",
      "outputs": [
        {
          "internalType": "address",
          "name": "",
          "type": "address"
        }
      ],
      "stateMutability": "view",
      "type": "function"
    },
    {
      "inputs": [],
      "name": "getTotalContractsCount",
      "outputs": [
        {
          "internalType": "uint256",
          "name": "",
          "type": "uint256"
        }
      ],
      "stateMutability": "view",
      "type": "function"
    },
    {
      "inputs": [],
      "name": "owner",
      "outputs": [
        {
          "internalType": "address",
          "name": "",
          "type": "address"
        }
      ],
      "stateMutability": "view",
      "type": "function"
    },
    {
      "inputs": [
        {
          "internalType": "bytes32",
          "name": "",
          "type": "bytes32"
        }
      ],
      "name": "procurementContractsByExternalId",
      "outputs": [
        {
          "internalType": "address",
          "name": "",
          "type": "address"
        }
      ],
      "stateMutability": "view",
      "type": "function"
    }
  ],
  "bytecode": "0x6080604052348015600e575f5ffd5b505f80546001600160a01b03191633179055611c8e8061002d5f395ff3fe608060405234801561000f575f5ffd5b506004361061007a575f3560e01c80638da5cb5b116100585780638da5cb5b146100e9578063a6f9dae1146100fb578063b06bdda51461010e578063e3babc0a14610123575f5ffd5b80631bf3081c1461007e5780631c539972146100935780631cce7ac4146100d8575b5f5ffd5b61009161008c36600461050c565b61014b565b005b6100bb6100a1366004610586565b60016020525f90815260409020546001600160a01b031681565b6040516001600160a01b0390911681526020015b60405180910390f35b6002546040519081526020016100cf565b5f546100bb906001600160a01b031681565b61009161010936600461059d565b61037b565b610116610473565b6040516100cf91906105bd565b6100bb610131366004610586565b5f908152600160205260409020546001600160a01b031690565b5f546001600160a01b031633146101a35760405162461bcd60e51b815260206004820152601760248201527621b0b63632b91034b9903737ba103a34329037bbb732b960491b60448201526064015b60405180910390fd5b5f8781526001602052604090205487906001600160a01b0316156102095760405162461bcd60e51b815260206004820152601a60248201527f45787465726e616c20494420616c726561647920657869737473000000000000604482015260640161019a565b6001600160a01b03871661025f5760405162461bcd60e51b815260206004820152601c60248201527f42757965722063616e6e6f74206265207a65726f206164647265737300000000604482015260640161019a565b5f5f5f9054906101000a90046001600160a01b0316888888888888604051610286906104d3565b6001600160a01b03978816815296909516602087015261ffff9384166040870152918316606086015282166080850152811660a08401521660c082015260e001604051809103905ff0801580156102df573d5f5f3e3d5ffd5b505f8a815260016020819052604080832080546001600160a01b0386166001600160a01b0319918216811790925560028054948501815585527f405787fa12a823e0f2b7631cc41b3ba8828b3321ca811111fa75cd3aa3bb5ace9093018054909316811790925551929350918b917fd0cf1d85eea0826e023e270d9b3b70e22efc539a701f9e71239e2d95e2dc459c91a3505050505050505050565b5f546001600160a01b031633146103ce5760405162461bcd60e51b815260206004820152601760248201527621b0b63632b91034b9903737ba103a34329037bbb732b960491b604482015260640161019a565b6001600160a01b0381166104245760405162461bcd60e51b815260206004820181905260248201527f4e6577206f776e65722063616e6e6f74206265207a65726f2061646472657373604482015260640161019a565b5f80546001600160a01b038381166001600160a01b0319831681178455604051919092169283917fb532073b38c83145e3e5135377a08bf9aab55bc0fd7c1179cd4fb995d2a5159c9190a35050565b606060028054806020026020016040519081016040528092919081815260200182805480156104c957602002820191905f5260205f20905b81546001600160a01b031681526001909101906020018083116104ab575b5050505050905090565b6116508061060983390190565b80356001600160a01b03811681146104f6575f5ffd5b919050565b803561ffff811681146104f6575f5ffd5b5f5f5f5f5f5f5f60e0888a031215610522575f5ffd5b87359650610532602089016104e0565b9550610540604089016104fb565b945061054e606089016104fb565b935061055c608089016104fb565b925061056a60a089016104fb565b915061057860c089016104fb565b905092959891949750929550565b5f60208284031215610596575f5ffd5b5035919050565b5f602082840312156105ad575f5ffd5b6105b6826104e0565b9392505050565b602080825282518282018190525f918401906040840190835b818110156105fd5783516001600160a01b03168352602093840193909201916001016105d6565b50909594505050505056fe608060405234801561000f575f5ffd5b5060405161165038038061165083398101604081905261002e91610118565b5f80546001600160a01b03199081166001600160a01b03998a16179091556001805490911696909716959095179095556040805160608101825261ffff94851680825293851660208083018290529386169183018290526005805463ffffffff19908116909617620100009283021761ffff60201b191664010000000090930292909217909155815180830190925295841680825293909416930183905260068054909116909117919092021790556007805460ff19169055610199565b80516001600160a01b0381168114610102575f5ffd5b919050565b805161ffff81168114610102575f5ffd5b5f5f5f5f5f5f5f60e0888a03121561012e575f5ffd5b610137886100ec565b9650610145602089016100ec565b955061015360408901610107565b945061016160608901610107565b935061016f60808901610107565b925061017d60a08901610107565b915061018b60c08901610107565b905092959891949750929550565b6114aa806101a65f395ff3fe60806040526004361061017b575f3560e01c80637520320f116100cd578063cf7f5e5f11610087578063d56b288911610062578063d56b2889146104f6578063eaac9a291461050a578063f327c2211461055f578063f40e84711461057e575f5ffd5b8063cf7f5e5f146104b0578063cfada3ba146104cf578063d0e30db0146104ee575f5ffd5b80637520320f146103b4578063801f0f05146103d35780638da5cb5b14610421578063b8e4f9451461043f578063bd72e4191461047d578063bfea918f14610491575f5ffd5b80634d8a6b66116101385780635eee192b116101135780635eee192b146102da578063603b16c2146102f95780636fe6bdf1146103185780637150d8ae14610395575f5ffd5b80634d8a6b6614610278578063539ed611146102a7578063593110eb146102bb575f5ffd5b8063055ad42e1461017f57806315f79366146101ae5780631b6b2601146101cf5780631dfbe6a3146101ee5780632804b2c01461022d57806341fe397a14610264575b5f5ffd5b34801561018a575f5ffd5b506007546101989060ff1681565b6040516101a59190611263565b60405180910390f35b3480156101b9575f5ffd5b506101cd6101c83660046112b5565b61060f565b005b3480156101da575f5ffd5b506101cd6101e93660046112f4565b610766565b3480156101f9575f5ffd5b506006546102129061ffff808216916201000090041682565b6040805161ffff9384168152929091166020830152016101a5565b348015610238575f5ffd5b5060025461024c906001600160a01b031681565b6040516001600160a01b0390911681526020016101a5565b34801561026f575f5ffd5b506101cd61083b565b348015610283575f5ffd5b50600354600454610292919082565b604080519283526020830191909152016101a5565b3480156102b2575f5ffd5b506101cd6108f3565b3480156102c6575f5ffd5b506101cd6102d5366004611314565b610966565b3480156102e5575f5ffd5b5061024c6102f4366004611360565b610aad565b348015610304575f5ffd5b506101cd610313366004611377565b610ad5565b348015610323575f5ffd5b506103666103323660046113b0565b600a6020525f90815260409020805460018201546002830154600390930154919261ffff8083169362010000909304169185565b6040805195865261ffff948516602087015292909316918401919091526060830152608082015260a0016101a5565b3480156103a0575f5ffd5b5060015461024c906001600160a01b031681565b3480156103bf575f5ffd5b506101cd6103ce3660046113b0565b610bb8565b3480156103de575f5ffd5b506104096103ed3660046113b0565b600b6020525f90815260409020805460019091015461ffff1682565b6040805192835261ffff9091166020830152016101a5565b34801561042c575f5ffd5b505f5461024c906001600160a01b031681565b34801561044a575f5ffd5b5061046d6104593660046113b0565b60096020525f908152604090205460ff1681565b60405190151581526020016101a5565b348015610488575f5ffd5b506101cd610c6e565b34801561049c575f5ffd5b506101cd6104ab3660046113d0565b610ce3565b3480156104bb575f5ffd5b506101cd6104ca3660046113b0565b610d97565b3480156104da575f5ffd5b506101cd6104e93660046113f8565b610e8a565b6101cd610f45565b348015610501575f5ffd5b506101cd610fd6565b348015610515575f5ffd5b5060055461053a9061ffff808216916201000081048216916401000000009091041683565b6040805161ffff948516815292841660208401529216918101919091526060016101a5565b34801561056a575f5ffd5b506101cd6105793660046113b0565b61104b565b348015610589575f5ffd5b506105d56105983660046113b0565b600c6020525f908152604090208054600182015460028301546003840154600485015460059095015461ffff948516959394929391929091169086565b6040805161ffff978816815260208101969096528501939093526060840191909152909216608082015260a081019190915260c0016101a5565b5f546001600160a01b0316331461065a5760405162461bcd60e51b815260206004820152600a60248201526927b7363c9037bbb732b960b11b60448201526064015b60405180910390fd5b60028060075460ff1660048111156106745761067461124f565b146106915760405162461bcd60e51b815260040161065190611429565b6040805160c08101825261ffff808716825260208083018781528385018781525f606086018181526080870182815260a088018381526001600160a01b038f168452600c909652918890209651875490871661ffff19918216178855935160018801559151600287015590516003860155516004850180549190941691161790915551600590910155517fed94e6f8f334678b3265725f268ecd9032016d6050efeb9e673a561ffbfb0a76906107579087906001600160a01b0391909116815260200190565b60405180910390a15050505050565b6002546001600160a01b031633146107b05760405162461bcd60e51b815260206004820152600d60248201526c27b7363c9031bab9ba37b6b2b960991b6044820152606401610651565b60018060075460ff1660048111156107ca576107ca61124f565b146107e75760405162461bcd60e51b815260040161065190611429565b60408051808201825284815260209081018490526003859055600484905590513381527f0a348e45ef0947ddbb99c9ec19c52da8326570c88fae94c49635d5959334225591015b60405180910390a1505050565b6001546001600160a01b031633146108655760405162461bcd60e51b815260040161065190611450565b60018060075460ff16600481111561087f5761087f61124f565b1461089c5760405162461bcd60e51b815260040161065190611429565b600780546002919060ff19166001835b02179055506007546040517fa6dcc92f45df25789d5639b7a0c97ba1edf3bb1c0b5dd3376fd96a0db87c4642916108e89160ff90911690611263565b60405180910390a150565b6001546001600160a01b0316331461091d5760405162461bcd60e51b815260040161065190611450565b5f8060075460ff1660048111156109365761093661124f565b146109535760405162461bcd60e51b815260040161065190611429565b600780546001919060ff191682806108ac565b335f9081526009602052604090205460ff166109c45760405162461bcd60e51b815260206004820152601860248201527f4f6e6c79207265676973746572656420737570706c69657200000000000000006044820152606401610651565b60018060075460ff1660048111156109de576109de61124f565b146109fb5760405162461bcd60e51b815260040161065190611429565b6040805160a08101825287815261ffff8581166020808401918252868316848601908152606085018b8152608086018b8152335f818152600a865289902097518855945160018801805494518816620100000263ffffffff1990951691909716179290921790945592516002850155915160039093019290925591519081527fbfe25c0d94efb7adb1948507c7908756d0ffdec577bc7cbb5241d229d3cd53da910160405180910390a1505050505050565b60088181548110610abc575f80fd5b5f918252602090912001546001600160a01b0316905081565b6001546001600160a01b03163314610aff5760405162461bcd60e51b815260040161065190611450565b60028060075460ff166004811115610b1957610b1961124f565b14610b365760405162461bcd60e51b815260040161065190611429565b60408051808201825284815261ffff84811660208084019182526001600160a01b0389165f818152600b83528690209451855591516001909401805461ffff1916949093169390931790915591519182527f55ca8283b28d6a981e32ff5dace9f51b6bf547b588c24d80680a824dd334e6f0910160405180910390a150505050565b6001546001600160a01b03163314610be25760405162461bcd60e51b815260040161065190611450565b5f8060075460ff166004811115610bfb57610bfb61124f565b14610c185760405162461bcd60e51b815260040161065190611429565b600280546001600160a01b0319166001600160a01b0384169081179091556040519081527f155e8619f4d23b96769599cb9af87da3e06a360082869c18578011da9a06e670906020015b60405180910390a15050565b6001546001600160a01b03163314610c985760405162461bcd60e51b815260040161065190611450565b60028060075460ff166004811115610cb257610cb261124f565b14610ccf5760405162461bcd60e51b815260040161065190611429565b600780546003919060ff19166001836108ac565b6001546001600160a01b03163314610d0d5760405162461bcd60e51b815260040161065190611450565b60038060075460ff166004811115610d2757610d2761124f565b14610d445760405162461bcd60e51b815260040161065190611429565b6001600160a01b0383165f818152600c6020908152604091829020600301859055815192835282018490527f41340b8fc0404d1612bcad390c112c0d89781453edce77fcc8402b47130b6a04910161082e565b6001546001600160a01b03163314610dc15760405162461bcd60e51b815260040161065190611450565b5f8060075460ff166004811115610dda57610dda61124f565b14610df75760405162461bcd60e51b815260040161065190611429565b6008805460018082019092557ff3f7a9fe364faab93b216da50a3214154f22a0a2b415b23a84c8169e8b636ee30180546001600160a01b0319166001600160a01b0385169081179091555f81815260096020908152604091829020805460ff1916909417909355519081527fbcffc870b52d3cb785b17c2c7426be70f9181ce49c43cc7b479ebcfac2d7a1c89101610c62565b6001546001600160a01b03163314610eb45760405162461bcd60e51b815260040161065190611450565b60038060075460ff166004811115610ece57610ece61124f565b14610eeb5760405162461bcd60e51b815260040161065190611429565b6001600160a01b0383165f818152600c6020908152604091829020600401805461ffff191661ffff871617905590519182527f975d334945dcf166d97a31111194f094ebd1330b2f1989740d68e3ad607c5e8d910161082e565b6001546001600160a01b03163314610f6f5760405162461bcd60e51b815260040161065190611450565b60028060075460ff166004811115610f8957610f8961124f565b14610fa65760405162461bcd60e51b815260040161065190611429565b6040513481527fef3b311be1da7da95d74a8dcdbc27a7531061f24b2b3d14bd314f0a131f60aa5906020016108e8565b6001546001600160a01b031633146110005760405162461bcd60e51b815260040161065190611450565b60038060075460ff16600481111561101a5761101a61124f565b146110375760405162461bcd60e51b815260040161065190611429565b600780546004919060ff19166001836108ac565b6001546001600160a01b031633146110755760405162461bcd60e51b815260040161065190611450565b60038060075460ff16600481111561108f5761108f61124f565b146110ac5760405162461bcd60e51b815260040161065190611429565b6001600160a01b0382165f908152600c6020526040902060038101541561110e5760405162461bcd60e51b815260206004820152601660248201527511195b1a5d995c9e481b9bdd0818dbdb5c1b195d195960521b6044820152606401610651565b80600501545f036111615760405162461bcd60e51b815260206004820152601860248201527f5061796d656e7420616c72656164792072656c656173656400000000000000006044820152606401610651565b68056bc75e2d63100000600582018190556040515f906001600160a01b0386169083908381818185875af1925050503d805f81146111ba576040519150601f19603f3d011682016040523d82523d5f602084013e6111bf565b606091505b50509050806112105760405162461bcd60e51b815260206004820152601760248201527f5061796d656e74207472616e73666572206661696c65640000000000000000006044820152606401610651565b604080516001600160a01b0387168152602081018490527f8a7b328e011987d3e3d09ba3aa2c8397c0c13b07ecb305fa3c6e25493056e0309101610757565b634e487b7160e01b5f52602160045260245ffd5b602081016005831061128357634e487b7160e01b5f52602160045260245ffd5b91905290565b80356001600160a01b038116811461129f575f5ffd5b919050565b803561ffff8116811461129f575f5ffd5b5f5f5f5f608085870312156112c8575f5ffd5b6112d185611289565b93506112df602086016112a4565b93969395505050506040820135916060013590565b5f5f60408385031215611305575f5ffd5b50508035926020909101359150565b5f5f5f5f5f60a08688031215611328575f5ffd5b853594506020860135935060408601359250611346606087016112a4565b9150611354608087016112a4565b90509295509295909350565b5f60208284031215611370575f5ffd5b5035919050565b5f5f5f60608486031215611389575f5ffd5b61139284611289565b9250602084013591506113a7604085016112a4565b90509250925092565b5f602082840312156113c0575f5ffd5b6113c982611289565b9392505050565b5f5f604083850312156113e1575f5ffd5b6113ea83611289565b946020939093013593505050565b5f5f60408385031215611409575f5ffd5b61141283611289565b9150611420602084016112a4565b90509250929050565b6020808252600d908201526c496e76616c696420706861736560981b604082015260600190565b6020808252600a908201526927b7363c90313abcb2b960b11b60408201526060019056fea26469706673582212207f5b9f365cfe600f2fc6014f47180a9f4c3655623da0343e213a812c239caa8764736f6c634300081c0033a2646970667358221220639075da200ac2cf55ef5c901fb363d7796556a1cad533a96f6a0b2c0c6bcd7364736f6c634300081c0033",
  "linkReferences": {},
  "deployedLinkReferences": {},
  "immutableReferences": {},
  "inputSourceName": "project/contracts/SourcingSystem.sol",
  "buildInfoId": "solc-0_8_28-2068b69803b431a7640e6c3c8b20f4ad2715e4ce"
}